:020000020000FC
:0200000028C016
:1000100032C037C070696E675C725C6E0D00706FC5
:100020006E675C725C6E0D0000E000BD07E609B90A
:1000300002E00BB908E00AB906E800BD08955D9B2F
:10004000FECF0CB908950591003011F0F8DFFBCF19
:1000500008950FE50DBF14E01EBFE6DF15E01EBDDD
:1000600011E01CBD1DBD15E019BF15E013BF1FEF4A
:1000700012BF7894FFCFEFE0F0E0EE0FFF1FE3DF59
:100080000895EAE0F0E0EE0FFF1FDDDF14E019BF96
:0400900078940895C3
:00000001FF
